:0E000000F4C3DDC7DDC7FCCF09C8FACFDBC7EC
:10000E00F8CFF7CFD7C7F5CFF4CFF3CFF2CFF1CFED
:10001E00F0CFEFCFEECFEDCF0000000000000000DC
:10002E000200013C4242242492FF92240080E020F0
:10003E003A23130864623649552250000503000026
:10004E00001C2241000041221C0014083E08140826
:10005E00083E080800503000000808080808006034
:10006E006000002010080402000000000000005F85
:10007E0000000007000700147F147F14242A7F2A33
:10008E0012231308646236495522500005030000FE
:10009E00001C2241000041221C0014083E081408D6
:1000AE00083E0808005030000008080808080060E4
:1000BE006000002010080402000000000081000013
:1000CE0000810007000700147F147F14242A7F2A62
:1000DE0012231308646236495522500005030000AE
:1000EE00001C2241000041221C0014083E08140886
:1000FE00083E080800503000000808080808006094
:10010E0060000020100804023E5149453E00427F27
:10011E00400042615149462141454B311814127F2E
:10012E001027454545393C4A4949300171090503B7
:10013E003649494936064949291E0036360000001F
:10014E0056360000081422410014141414140041F1
:10015E002214080201510906324979413E7E1111DD
:10016E00117E7F494949363E414141227F4141221C
:10017E001C7F494949417F090909013E4149497A94
:10018E007F0808087F00417F41002040413F017FEA
:10019E00081422417F404040407F020C027F7F04C2
:1001AE0008107F3E4141413E7F090909063E4151FB
:1001BE00215E7F09192946464949493101017F01CE
:1001CE00013F4040403F1F2040201F3F4038403FEE
:1001DE00631408146307087008076151494543000A
:1001EE007F41410002040810200041417F000402BB
:1001FE0001020440404040400001020400205454DB
:10020E0054787F4844443838444444203844444861
:10021E007F3854545418087E0901020C5252523E33
:10022E007F0804047800447D40002040443D007F58
:10023E001028440000417F40007C041804787C089C
:10024E0004047838444444387C14141408081414F4
:10025E00187C7C080404084854545420043F44403D
:10026E00203C4040207C1C2040201C3C4030403C28
:10027E0044281028440C5050503C4464544C4400C4
:10028E000836410000007F000000413608001008CB
:10029E000810087846414678000000000000005F14
:1002AE0000000007000700147F147F14242A7F2A01
:1002BE0012231308646236495522500005030000CC
:1002CE00001C2241000041221C0014083E081408A4
:1002DE00083E0808005030000008080808080060B2
:1002EE006000002010080402000000000000005F03
:1002FE0000000007000700147F147F14242A7F2AB1
:10030E00122313086462364955225000050300007B
:10031E00001C2241000041221C0014083E08140853
:10032E00083E080800503000000808080808006061
:10033E006000002010080402000000000000005FB2
:10034E0000000007000700147F147F14242A7F2A60
:10035E00122313086462364955225000050300002B
:10036E00001C2241000041221C0014083E08140803
:10037E00083E080800503000000808080808006011
:10038E0060000020100804023E5149453E00427FA5
:10039E00400042615149462141454B311814127FAC
:1003AE001027454545393C4A494930017109050335
:1003BE003649494936064949291E0036360000009D
:1003CE00563600000814224100141414141400416F
:1003DE0022140802015109067E1111117E7F49492E
:1003EE0049317F494949367F01010103702927218F
:1003FE007F7F4949494177087F08774141414976D6
:10040E007F1008047F7F1009047F7F08142241208B
:10041E00413F017F7F020C027F7F0808087F3E412B
:10042E0041413E7F0101017F7F090909063E41419D
:10043E00412201017F010147281008071E217F215B
:10044E001E63140814633F2020205F070808087FEE
:10045E007F407F407F3F203F205F017F4848307FB5
:10046E004830007F007F484830414141493E7F0877
:10047E003E413E462919097F20545454783C4A4A3D
:10048E0049317C545428007C0404040C722A262220
:10049E007E38545454186C107C106C4444545438A8
:1004AE007C2010087C7C2112097C7C1028440020C2
:1004BE00443C047C7C0810087C7C1010107C384472
:1004CE004444387C0404047C7C14141408384444DA
:1004DE00442004047C0404442810080408147E14E8
:1004EE000844281028443C40407C400C1010107CDE
:1004FE007C407C407C3C203C207C047C5050207C0A
:10050E005020007C007C50502028444454387C10ED
:10051E00384438485434147C0000000000000000B9
:10052E0000000000000000000000000000000000BD
:10053E0000000000000000000000000000000000AD
:10054E00000000000000000000000000000000009D
:10055E00000000000000000000000000000000008D
:10056E0000000000000000000000000000FC040479
:10057E0004FC08080000000000000000000000005D
:10058E00000000000000000000000000000000005D
:10059E00000000000000000000000000000000004D
:1005AE00000000000000000000000000000000003D
:1005BE00000000000000000000FC0404FC202000ED
:1005CE0000FF000000FF020000000000000000001D
:1005DE00000000000000000000000000000000000D
:1005EE0000000000000000000000000000000000FD
:1005FE0000000000000000000000000000000000ED
:10060E0000000000000000000000404040FF00001D
:10061E00FF04040000FF000000FF81010000000045
:10062E0000000000000000000000000000000000BC
:10063E0000000000000000000000000000000000AC
:10064E00000000000000000000000000000000009C
:10065E00000000000000000000000000000010106C
:10066E0092FF0000FF000000007F4040407F10100E
:10067E00000000000000000000000000000000006C
:10068E00000000000000000000000000000000005C
:10069E00000000000000000000000000000000004C
:1006AE00000000000000000000000000000000003C
:1006BE000000040424FF0000FF00000080FFF9F991
:1006CE00F9FF90223C000000000000000000000036
:1006DE00000000000000000000000000000000000C
:1006EE0000000000000000000000000000000000FC
:1006FE0000000000000000000000000000000000EC
:10070E000000000000001C3E7FF781B7FD7F3E1CFD
:10071E00FFFFFFFFFFFFFFFFFFFFFFFFFFFFFFFFDB
:10072E00FFFFFF81FD91FD81B9C5C5B98185FD85AD
:10073E0081DD81FF00FE829393928282828292BB40
:10074E009382FE00000000FF81DD81FF00492A1C1C
:10075E007F1C2A490000000000000000000000007D
:10076E00000000000000000000006400C8009001BE
:10077E002003F8FFFCFFFEFFFFFF1027E8036400D5
:10078E000A0001000010000110000100000001002D
:10079E0002000303025025337500257500253369C9
:1007AE000200546865726D6F002532692E256956F8
:1007BE00004E6F726D616C00566F6C746D65746572
:1007CE007200010002009A07010071039C070100EC
:1007DE0072039E0704000400A0070000F894EE27A1
:1007EE00ECBBF1E0FBBFEBBFE5BFF8E1F1BDE1BD56
:1007FE008DE0A2E0BB27ED938A95E9F780E094E0C7
:10080E00A0E6ED930197E9F7E0EDF7E0859195917C
:10081E00009761F0A591B59105901590BF01F0017B
:10082E0005900D920197E1F7FB01F0CFEFE5EDBFDB
:10083E00E4E0EEBFC0E6D1E0EBC3AA93C198E88135
:10084E00E03011F0C29A01C0C298E981EFB9EEB161
:10085E00E078E038E1F7C19A72C34AD655D634F43F
:10086E0057D6EC915AD6E9DF5BD6F8CF96C23BDA73
:10087E0000E010E049D62CF44BD6E0E0EC9350D6D5
:10088E00F9CFEBDF8AC2C09ABD9ABB9AB99ABA9ACF
:10089E00B89A49D67DD7E0E5EDB9C098AAE046D61C
:1008AE0077D7C09AC19A44D6E52DEC5F45D6E42D94
:1008BE00E05F42D6E72DE0583FD6A0E020FCA1E055
:1008CE00EA2FEE0FEE0FEE0FE0620E2EA0E021FCEF
:1008DE00A1E0EA2FEE0FEE0FE0292ED6E62DEE0F59
:1008EE00E629E570E86028D6C2DF0895AA93A881AC
:1008FE00A03808F05BC31CD6E881E0681DD6E0E2A4
:10090E001BD654C31CD6F4D5FFD558F4F8011AD60D
:10091E000F01F8011AD61CD6E491D001EC9300D643
:10092E00F3CFE8D96AC2AA93DCD9AE81A53550F5CA
:10093E00AD81A13338F50FD6A4E5B0E039D9DF018A
:10094E00EE810FD605D68F0106D6EE0FEE0FEE0F07
:10095E00AD81AE1B3A2FDCD52C91EC81E03021F429
:10096E0002D6E0952E230BC0AC81A13019F4FBD535
:10097E002E2B05C0AC81A23011F4F5D52E27F8012F
:10098E00E1D52083B5D927960895AA932497E0E060
:10099E00E883E983EA83EB83A2D900E010E020E04C
:1009AE0030E040E050E0E3D5A535E0E0BE0764F46A
:1009BE00E1D5A535E0E0BE073CF4DFD5D19724F4B0
:1009CE00AB85BC85D1970CF059C0D7D5D9D5DBD521
:1009DE008F01CDD5ED85FE85D6D59F01112332F43D
:1009EE00F8019BD88F01EFEFFFEF02C0E1E0F0E0DE
:1009FE00E887F987332332F4F9018FD89F014FEF3F
:100A0E005FEF02C041E050E0000F111F220F331FB5
:100A1E00BDD502171307D4F4F901F595E795DF015B
:100A2E00F801B1D5B9D5ED85FE85A1D5EA17FB073D
:100A3E0061F0AF81AA232AF0B2D5B8D5E21BF30B31
:100A4E00ABD5B7D5F801BBD5EECF18C0F801F595EB
:100A5E00E795DF01F90197D59FD592D58ED5EA1787
:100A6E00FB0761F0AF81AA232AF0A3D59FD5E01B27
:100A7E00F10B92D594D5F901A2D5EFCF37D9639664
:100A8E000895AA932ED9AC81A53690F50C80112429
:100A9E00A985BA85ED81FE8176D5D00189D8DF0191
:100AAE00E4E6F0E0A2D81E2F30E0311760F48CD5CA
:100ABE00AF81B8858ED588D5AB85BC858AD5A1E0AA
:100ACE0064DF3F5FF2CFA985ED81EA1B0E2F302F39
:100ADE00131770F455D580D5AF81B88580D550D514
:100AEE007BD5AB85BC857BD5A0E04FDF3150F0CFF9
:100AFE00FFD82D960895AA93A981AF3018F4A88136
:100B0E00A73008F010C0E8812CD53197A4E5B0E0ED
:100B1E004FD8BF01E98125D53197A6E0B0E048D87E
:100B2E00E60FF71F4F010BC21A9310E01E3028F488
:100B3E005AD55BD55DD51F5FF9CF19910895FFD4B6
:100B4E001A9310E0EF81F88556D580F459D5BF0180
:100B5E00EB81FC81309721F058D55ED5E09502C02F
:100B6E0054D55AD5DB01EC931F5FECCFE981FA81A6
:100B7E00309711F045D53CD518812B96089552D556
:100B8E002BD5E5E0F0E028D5E6E2F0E04FD5CBD46A
:100B9E00D6DFD5C1AA931A93AA81AF3018F0A981D6
:100BAE00A73008F401C0E7C245D5EA81DAD4AFE038
:100BBE00B0E08ED8E8D41FD564F415D516D5E081F3
:100BCE00E03029F010D511D5A081B0D4D8DF1F5F49
:100BDE00ECCFAADFD0C2B3D484D800E030E020E05E
:100BEE0010E0153088F5EC81FD81A5E0B0E0E0D78E
:100BFE00DF01F9D4ADD4EA5DFF4F249121D5302D1C
:100C0E0024D53E2B28D53E2B2CD53E2B22952F704E
:100C1E0017D5002D1AD50E2B1ED50E2B22D50E2B29
:100C2E00F40190D43083F401E858FE4F3083F40180
:100C3E00E553FE4F0083F401E453FE4F0083F401AD
:100C4E0032964F011F5FCDCFDBD4D2D4D9D4D0D4BE
:100C5E005AC2AA931A93AA81AE3018F0A981A6306F
:100C6E0008F401C088C2E6D4EA817BD4AEE0B0E0DD
:100C7E002FD889D4C0D464F4B6D4B7D4E081E03090
:100C8E0029F0B1D4B2D4A08151D4A5DF1F5FECCF2F
:100C9E004BDF71C254D42897EAD4A739E0E0BE07DF
:100CAE0024F0E6E9F0E0E887F987A985AA231AF48B
:100CBE00E0E0E887E987DED4E4EAF7E08DD4EC855E
:100CCE00FD85DBD4ECE029D465DFD4D4E8EAF7E087
:100CDE0083D4EE85FF8566277727F5D784E0C8D3C2
:100CEE002896E1E01AD456DFC2D430D7CCD4E6E948
:100CFE00F0E060E070E0A3D790D6EC83FD836E83C6
:100D0E007F83EEE4F0E0C7D4EFE4F0E065D4E7E2F1
:100D1E00F0E062D4EC85FD856E857F8545D6AE2FDD
:100D2E00B0DEAA85BB8588279927ADD4E7E3F0E02E
:100D3E0060E070E084D771D6C1D7E2E0F0E0ABD4CA
:100D4E00AED4E5E2F0E048D4E885F9856A857B8586
:100D5E002BD6AE2F96DE2C960895C5D7E0EFEA93EC
:100D6E00A5E7B3E06FD5E093740300E010E0E091E7
:100D7E007403D801F6D3AE17BF0778F4A9E0A09F8D
:100D8E00F001A19FF00D8ED427D4E2EEEA93EDE7A9
:100D9E00EA93A0E0F3D1C4D3EACFAFD7089542D4FB
:100DAE00E330A0E0FA0729F4E09172037ED46F01DC
:100DBE0004C0E230A0E0FA0729F4E091710375D483
:100DCE005F0104C0E130A0E0FA0769F4E09173031B
:100DDE00A9E0EA9FF00166D4DF0198D1AFE6B3E057
:100DEE00E5D5ED93FC93ABC0AAD3EA81FB81F4D396
:100DFE0064D4F2D3DBD367D4A2DE24960895E3E065
:100E0E008CD379DE4CD459D411D460D456D40ED4AC
:100E1E005DD453D40BD4A0E089D391DE08958FD343
:100E2E00A881B981A436E0E0BE0724F0E3E6F0E045
:100E3E00E883F983A881B981AE3CEFEFBE0724F4B5
:100E4E00EEECFFEFE883F983E881F98178C0EAD30D
:100E5E0066277727E2D5ADE2B6E286E19EE30BD6B2
:100E6E00E093BF03F093C0036093C1037093C2037A
:100E7E0066C065D336D7EC81FD81309769F5D60112
:100E8E00CEDF8F01D501CBDF9F01E3E0EA93A2E035
:100E9E0032DEA3E04BD39FDEE3E0EA93A4E02BDE49
:100EAE00A4E044D398DEE6D3EBEAF7E095D3F9015C
:100EBE00E4D3E5E0EA93A2E0CCDEDCD3EBEAF7E0A4
:100ECE008BD3F801DAD3E5E0EA93A4E0C2DED2D305
:100EDE00E0EBF7E0FFD326C0E130A0E0FA0729F5FA
:100EEE00C9D3E7EBF7E078D3FBD37FD62AD6EBD680
:100EFE00F7D3AAD626D6E7D688E0BAD22C96E3E068
:100F0E00EA93A3E0A6DEB6D3EFEBF7E0E3D3EA93E2
:100F1E00A5E040DEAFD3E6ECF7E05ED380E0A8D2EA
:100F2E002496E3E0EA93A6E035DEEDC07BD3E093B2
:100F3E00BD03F093BE039BDCA6E2B5E0E3DC229694
:100F4E0008955DDFDAD3A436E0E0BE073CF0E3E0BF
:100F5E00E4D2D1DDE1E0F0E0B6D346DFE3E0F0E04D
:100F6E00EA15FB053CF0E9E0D8D2C5DDE3E0F0E0A0
:100F7E00AAD33ADF0895EBE2F0E02ED3BED38ADE99
:100F8E00A091BD03B091BE0374DFDBDF66DC089574
:100F9E000895AA93E881E06CE7B98BE18A95F1F7A1
:100FAE00369A349BFECF349AE4B1F5B1219608956A
:100FBE001895189518950A921A92FA926A937A933E
:100FCE008A939A93AA93BA93EA93FA93EFB7EA9312
:100FDE0099D3D1DFA3ECB3E099D3A091C303B09121
:100FEE00C4031A9730F0E0E0E093C303E093C40328
:100FFE0093D3E991EFBFF991E991B991A9919991A3
:10100E00899179916991F99019900990189518958F
:10101E00E0E0E8BBE7BBE5BBE4BBE2BBE1BBE5E080
:10102E00E3BFE0E0E2BFEFBDE5E0EEBD6BD3E0E095
:10103E00E7BDE6BDEFE0EBBDE2E4EABDE0E0E9BD11
:10104E00E8BDE2BDE7E0E5BDE0E0E4BDE3BDEBB742
:10105E00E06CEBBFEEE0E5BFE0ECEABFE1E5E9BF37
:10106E00E0E0EAB9E0E8E8B9E0E0E0BFE0ECE7B9DB
:10107E00E3E8E6B9E0E0EDB9E6BF94D304DCA3E221
:10108E0035DC6BDE49D34FD251DF789481DFFECF52
:10109E00FFCF55D21A9386D3E03011F4E0E06BC047
:1010AE00E981FA81309769F0A5E5C2D310E03CD30F
:1010BE00ED91A983BA83AE2FBBD31F5F1830B8F35F
:1010CE0002C0ACECB5D3E1E056C039D20AD6AC8141
:1010DE00BD812DD311F4E0E016C0AEEBA9D310E024
:1010EE0020E631E03F932F932F5F3F4F9CD3AF917C
:1010FE00BF91EC931F5F1930A8F3E0E6F1E06CD2DC
:10110E00A9E00FD428D5F4D52696089518D21A93AF
:10111E000BD3DBDFE03011F40DD32DC0E091640171
:10112E00E295EF70E695E3701E2FFED200D311F418
:10113E0001D321C0A4E47CD3E12FA8E7B7E0FFD20E
:10114E00BAD526D3F1D2C1DFE03011F4F3D213C0F9
:10115E0029D3E12FA0E8B7E0F2D2A9D5A091600182
:10116E00B0916101EA23FB23ECD457D4A0E0B0E0A8
:10117E0080E89DE380D4188123960895AA93AB81CD
:10118E00BC81D5D211F4E0E05EC0E881E295E07F4B
:10119E00EE0FEF61E883AEE44BD3A98149D3AA8168
:1011AE0047D3A88145D3AB81BC818FDFE03011F4EA
:1011BE00E0E049C0A0916301EA81EA1751F4A091E1
:1011CE006201E981EA1729F4A0916401E881EA1726
:1011DE0011F0E0E038C0AB81BC81A9D211F4E0E09F
:1011EE0032C0A8E425D3AFE0A1D1D2D2DBD22BC03E
:1011FE00A6D179D5AAD1129656D53097F1F0A5D1B0
:10120E00A2D28F01309761F00230E0E01E07A0F00D
:10121E00F80131978F01AA81BB811496ED93FC934F
:10122E0094D1129673D23197AC81A0838ED13BD5D7
:10123E00FF2312F08AD16AD205C087D1EFEFFFEFFC
:10124E00ED93FC9357D52596089579D1269747D5DA
:10125E0010E0AC85BD85E0E0F0E0ED93FC93EA890B
:10126E00FB893196EA8BFB8B3197E4912E2FE03080
:10127E0009F4F8C0E12FE03031F4253211F411E019
:10128E0001C064D2EEC0E130A1F4253211F45ED279
:10129E00E7C012E040E000E02D3211F401E0E1C0C1
:1012AE002B3211F44BE2DDC0203211F440E2D9C0F2
:1012BE0002C0E23039F450E013E0203311F400683C
:1012CE00D0C003C0E33009F0CCC0203310F02A3375
:1012DE0008F007C0AAE05A9F502DE22FE0535E0F90
:1012EE00C0C0E22FE33639F437D239D235D2A481D9
:1012FE00AA9339D2B5C0E33739F43AD23BD24CD1A6
:10130E003CD2DFD01E2F09C0E03759F431D232D291
:10131E0043D133D2E1D01E2F086002600F7730E048
:10132E002EC0E43611F0E93611F4046002C0E53740
:10133E0029F4E8E8F7E030D115E00BC0E83511F4F8
:10134E00086003C0E83709F08BC0E2E9F7E024D16A
:10135E0014E002FF11C00CD20DD212D2AB85AA231B
:10136E002AF4EA85FB85D9D30BD24DE2403011F039
:10137E001F5F01C00B7F03C0FBD1FCD101D200FD6A
:10138E0010C0151770F407FF08C002FF04C00B7FD2
:10139E00242F115001C020E301C020E2D7D15150BB
:1013AE00F0CF312F01FF13C0303081F003FF04C0A6
:1013BE00FDD02591F1D004C0E0D12D91AE83BF8335
:1013CE00C5D1503009F051503150EECF40C020E31E
:1013DE00EDD06DD4E887F987E9D03296DDD0E88577
:1013EE00F985AA85BB85AE17BF0738F02F5F3FD1B1
:1013FE00EA85FB85C8D0C4D1F2CF2A3328F003FF8B
:10140E0002C0295F01C0295D04FD18C0213318F404
:10141E002ED1119709F409C0531710F000FF01C027
:10142E0011C020E207FF0AC020E3006102FF06C0E0
:10143E000B7F4A9398D1503009F0515087D15030DC
:10144E0009F05150315013D1129708F0C0CF00FF60
:10145E0007C0503029F05150E0E2EA9384D1F9CF21
:10146E0010E0FDCEAC85BD851ED440D464960895A3
:10147E00FF92F82E269735D486D1309719F4EFEFD8
:10148E00FFEF1BC0DE01169644D38D017CD184D0B4
:10149E00E0E0E887E987DE011A963BD304D49CD0BE
:1014AE001A930A93EFEFF8E097D0DE011A96CDDE8D
:1014BE009F0163D1E0E0EC93F9011AD42A96FF90D4
:1014CE0008953DD0A991B991EE27FF276D9166231E
:1014DE0011F03196FBCF089532D0AA27BB27E991A0
:1014EE00F9910590002011F01196FBCFFD010895A2
:1014FE00FAD3E0E8EA93A0E0A0D9E0E4EA93A0E012
:10150E009CD900E010E00895083FE1E01E07089521
:10151E00A7E7B1E0A00FB11F0895EA93A1E00895E7
:10152E000F5F1F4F0895A1E0B0E00895B0E0089559
:10153E00E1E2EA93A0E081C9EA93A0E07EC9BA9302
:10154E00AA930895E958FE4F0895AA81BB81089584
:10155E00EA0FFB1F0895AD81E9DFE8E0F0E045D327
:10156E000895F0E00895E32FA1E0E3D20895A9894C
:10157E00BA890895AD85BE850895AF85B889089559
:10158E00EB85FC850895EA1BFB0B0895E989EA9328
:10159E00E889EA93AC85C7C9EE83FF830895E88591
:1015AE00F985EBDFD5DFEF87F88B0895EE81FF81AC
:1015BE000895FA01DCDFCCDFE98BFA8B0895AE815A
:1015CE00BF81C6DFE9DFE2CFDBDFFA93EA93E32FD9
:1015DE00C8CFAE1BBF0BB3CFFA93EA930895119603
:1015EE00E32FBFDFF6CFE12FBCCFE759FE4F0895B3
:1015FE00A0E0A0830895A12F99DFAE17BF0708952D
:10160E00F40131964F0131979DCFEF81F885A98571
:10161E00BA85A6D2DF01E7CF9BDFAD81BE8198DF11
:10162E00E49108958CDFE881F9810895D5DFE0E03B
:10163E00F0E0D2CFEA81EA93AA815DDA10E0089554
:10164E00E22FE170A3E0EA020895E22FE270A6E035
:10165E00EA02F0010895E22FE470ACE0EA02F00134
:10166E000895E22FE870A8E1EA02F0010895A88536
:10167E00B9850895E9E6F1E0AFCF63D224D384E0D3
:10168E00F7DE28960895E4E6F0E060E070E095D28B
:10169E00DF01CB010895A0DFEAE0F0E09DCFE4E0AA
:1016AE00F0E09ACFEB58FC4F0895A9E0EA9FF001C5
:1016BE00F9DFDF012BDD7AD10895E2E1F0E08CDF76
:1016CE00EEE1F7E0089588DFA0E030CFA0E02EDF56
:1016DE0036DAE5CF81DF80E0CBDE2496E5E00895B3
:1016EE00E091BF03F091C0036091C1037091C203FA
:1016FE005DD1DF01EAE0F0E00895A0916F03B091B3
:10170E0070030895E0E0EDBDECBD0895ED91FD91FF
:10171E003196FE93EE930895A0917403BB273FDBA1
:10172E00A1E037DCDF0193CBA981BA810895B1DC4A
:10173E00E0300895E0E0FCE36CE176EC089511DF13
:10174E00EE0FFF1F05CF1496AED208952A9312DF27
:10175E00EF85F88909950895E889F98908953497F0
:10176E00E88BF98B089506DFEF85F88909950895C2
:10177E00F3DFF5CFA889B989E6CFAE81BF81089591
:10178E00EA87FB870895DE011C96C3D18CD208959B
:10179E00109639F080ED97E00197F1F7A895119723
:1017AE00C9F70895EE27A898A09A80EC93E00197C8
:1017BE00F1F7A09885E28A95F1F7989B08958BEC46
:1017CE008A95F1F7989BE1E08CE093E00197F1F7B1
:1017DE000895A09A85E08A95F1F7A0988DE18A95F3
:1017EE00F1F7889498990894E79585ED8A95F1F725
:1017FE000895E894A09A85E08A95F1F770FDA09877
:10180E0083E28A95F1F7989903C070FF03C008959B
:10181E0070FF089588EC8A95F1F7A0988DE08A956F
:10182E00F1F76894089568E0D4DF6A95E9F70895B2
:10183E007A2F68E0EE27DDDF26F477956A95D9F7E3
:10184E00E39508954F935F9311244427012C11249F
:10185E00A9DFEE2301F1AF93A881EADFAF9151E04A
:10186E00501598F4B6DFE7FD08C0B3DFE7FD06C0FC
:10187E003FD0892319F4152E01C0ABDF39D089234F
:10188E0070E009F071E0B5DF1EC0A3DFE7FF0BC00B
:10189E00A0DFE7FF05C0E42F5F914F9121960895D9
:1018AE00689437D0EFCF95DFE7FF01C003C0501526
:1018BE0031F0152EE8942DD077279BDF04C0689465
:1018CE0028D071E096DF5395513454F282DFEE1F2B
:1018DE00EE1FE1701896EC93189743951120D9F2EC
:1018EE0059E0EC911996EC9318975A95D1F7AECF23
:1018FE00E52FEA956E2FE695E695E695FF27EA0F1A
:10190E00FB1F808191E0677019F0990F6A95FCCFEB
:10191E000895EEDF1EF09095892301C0892B8083F8
:10192E000895EE27AA2389F08A2F68E1A881B9814C
:10193E0098E0FD917F2F7E27779508F4E627E795AF
:10194E00F6959A95B9F78A9599F7229608955523A3
:10195E0042F4503811F4E0FF04C03196691F791F2C
:10196E006BF050E8572711F45F9373C05F3F31F06F
:10197E00660F000C57956795752F08955F9300209D
:10198E000AF073C06CC050E8192E1522880F991FEB
:10199E009527550F879550E8072E0522660F771F5E
:1019AE007527550F67950895689401C0E8945F9365
:1019BE00F2DF703818F07F3F08F44BC056E1571B2A
:1019CE00AAF4519558300EF4593030F0EFEFFFEF86
:1019DE006FEF7FE777F91AC077275523B9F0EE0F2F
:1019EE00FF1F661F771F5A95D1F710C07727583003
:1019FE0028F0EF2FF62F672F5850F9CF552331F0DF
:101A0E0076956795F795E7955A95D1F700200AF4E4
:101A1E0088D05F910895689401C0E8943097604033
:101A2E007040B1F0002426F0772312F4009479D0A0
:101A3E00172E7EE1112032F07A95EE0FFF1F661FF2
:101A4E00111CF9CFEF2FF62F612D5F938ADF5F9177
:101A5E000895EE27FF27662777275F910895EFEF0A
:101A6E00FFEF6FE77FEF5F910895EFEFFFEF6FE707
:101A7E007FE75F9108955F9386DF703851F390385A
:101A8E0041F301240894791F23F41CF300203AF348
:101A9E00ECCF0F921F932F933F934F931127222733
:101AAE009927689FA0018F9F302D410D591F6B9F65
:101ABE00300D411D591F8E9F27D0BF9F25D06A9F85
:101ACE0023D0BE9F1DD0AF9F1BD0AE9F110D291FDF
:101ADE00391F491F591FE32FF42F652F522F4F9196
:101AEE003F912F911F910F9066232AF0550FEE1FF5
:101AFE00FF1F661F02C073954BF229DF5F91089599
:101B0E00100D211D391F02C0200D311D491F591FF7
:101B1E0008950024AF0DB01D0895F195E195F040A4
:101B2E000895F09560957095E195FF4F6F4F7F4F3B
:101B3E000895EE230E2EEA2F19F0EE0F0A94E9F710
:101B4E0008956F2F660F660B762F08958B2F880FD3
:101B5E00880B982F0895EE23E1E009F0EE27089503
:101B6E00FA9FF02DEB9FF00DEA9FE02DF10D0895F9
:101B7E007A9F702D6B9F700DF89F700DE99F700D01
:101B8E006A9F602D710DFB9F600D711DE89F600DAA
:101B9E00711D8827FA9FF02D610D781FEB9FF00DB8
:101BAE00611D781FEA9FE02DF10D681F781F0895C3
:101BBE0059D0D6DF0EF4B1DF089562D0D9DF0EF41E
:101BCE00B0DF08950024112490E1AA0FBB1F001C62
:101BDE00111C0E1A1F0A18F40E0E1F1E01C0A16052
:101BEE009A9599F7FD01D00108953CD0EBDF0EF4E4
:101BFE0094DF08953F934F935F930024112444275D
:101C0E00552730E2AA0FBB1F881F991F001C111CFD
:101C1E00441F551F0E1A1F0A460B570B28F40E0EA3
:101C2E001F1E461F571F01C0A1603A9559F7FD01AF
:101C3E00BC01D001CA015F914F913F91089520D010
:101C4E00D9DF0EF46EDF0895E894B7FF04C0A095B7
:101C5E00B09511966894F7FD60DFB4DFFD010EF4C8
:101C6E005CDF0895E894F7FF02C057DF6894B7FF72
:101C7E0006C0A095B095119600F8039400FA089549
:101C8E00E89477FF02C04DDF689497FF0BC00024E5
:101C9E00A095B095809590951196801D901D00F899
:101CAE00039400FA0895ED91FC9111970895059013
:101CBE00F491E02D0895A591B4910895E883F983E8
:101CCE006A837B8308957A936A93FA93EA930895CD
:101CDE001B2EBF2FF12D1A2EAE2FE12D08955A93E4
:101CEE004A933A932A931A930A9308955D814C81ED
:101CFE003B812A81198108810895099119910895CE
:00000001FF
