:04000000E4C37EC710
:100004007EC7FCCFADC7FACF7CC7F8CFF7CF78C790
:10001400F5CFF4CFF3CFF2CFF1CFF0CFEFCFEECFD8
:10002400EDCF00000000000000000200013C42424D
:10003400242492FF92240080E0203A23130864626F
:1000440036495522500005030000001C22410000DF
:1000540041221C0014083E081408083E08080050F9
:10006400300000080808080800606000002010083C
:100074000402000000000000005F00000007000709
:1000840000147F147F14242A7F2A12231308646225
:1000940036495522500005030000001C224100008F
:1000A40041221C0014083E081408083E08080050A9
:1000B40030000008080808080060600000201008EC
:1000C4000402000000000081000000810007000716
:1000D40000147F147F14242A7F2A122313086462D5
:1000E40036495522500005030000001C224100003F
:1000F40041221C0014083E081408083E0808005059
:10010400300000080808080800606000002010089B
:1001140004023E5149453E00427F4000426151493C
:10012400462141454B311814127F10274545453966
:100134003C4A4949300171090503364949493606A3
:100144004949291E003636000000563600000814BE
:100154002241001414141414004122140802015101
:100164000906324979413E7E1111117E7F49494980
:10017400363E414141227F4141221C7F4949494148
:100184007F090909013E4149497A7F0808087F002F
:10019400417F41002040413F017F081422417F40BC
:1001A4004040407F020C027F7F0408107F3E4141A3
:1001B400413E7F090909063E4151215E7F09192903
:1001C40046464949493101017F01013F4040403FD2
:1001D4001F2040201F3F4038403F6314081463072A
:1001E400087008076151494543007F4141000204FA
:1001F4000810200041417F000402010204404040F5
:100204004040000102040020545454787F48444480
:10021400383844444420384444487F3854545418AB
:10022400087E0901020C5252523E7F0804047800F1
:10023400447D40002040443D007F1028440000419C
:100244007F40007C041804787C0804047838444413
:1002540044387C14141408081414187C7C0804040E
:10026400084854545420043F4440203C4040207CDF
:100274001C2040201C3C4030403C44281028440CA6
:100284005050503C4464544C440008364100000033
:100294007F00000041360800100808100878464125
:1002A4004678000000000000005F0000000700071F
:1002B40000147F147F14242A7F2A122313086462F3
:1002C40036495522500005030000001C224100005D
:1002D40041221C0014083E081408083E0808005077
:1002E40030000008080808080060600000201008BA
:1002F4000402000000000000005F00000007000787
:1003040000147F147F14242A7F2A122313086462A2
:1003140036495522500005030000001C224100000C
:1003240041221C0014083E081408083E0808005026
:100334003000000808080808006060000020100869
:100344000402000000000000005F00000007000736
:1003540000147F147F14242A7F2A12231308646252
:1003640036495522500005030000001C22410000BC
:1003740041221C0014083E081408083E08080050D6
:100384003000000808080808006060000020100819
:1003940004023E5149453E00427F400042615149BA
:1003A400462141454B311814127F102745454539E4
:1003B4003C4A494930017109050336494949360621
:1003C4004949291E0036360000005636000008143C
:1003D400224100141414141400412214080201517F
:1003E40009067E1111117E7F494949317F494949E6
:1003F400367F01010103702927217F7F4949494143
:1004040077087F087741414149767F1008047F7F50
:100414001009047F7F0814224120413F017F7F029D
:100424000C027F7F0808087F3E4141413E7F010165
:10043400017F7F090909063E4141412201017F01F3
:100444000147281008071E217F211E631408146326
:100454003F2020205F070808087F7F407F407F3FC0
:10046400203F205F017F4848307F4830007F007F75
:10047400484830414141493E7F083E413E462919A2
:10048400097F20545454783C4A4A49317C545428B6
:10049400007C0404040C722A26227E385454541816
:1004A4006C107C106C44445454387C2010087C7CC0
:1004B4002112097C7C1028440020443C047C7C08E4
:1004C40010087C7C1010107C38444444387C0404AC
:1004D400047C7C14141408384444442004047C042C
:1004E40004442810080408147E14084428102844DE
:1004F4003C40407C400C1010107C7C407C407C3C98
:10050400203C207C047C5050207C5020007C007CCB
:1005140050502028444454387C10384438485434CB
:10052400147C000000000000000000000000000037
:1005340000000000000000000000000000000000B7
:1005440000000000000000000000000000000000A7
:100554000000000000000000000000000000000097
:100564000000000000000000000000000000000087
:1005740000000000000000FC040404FC0808000063
:100584000000000000000000000000000000000067
:100594000000000000000000000000000000000057
:1005A4000000000000000000000000000000000047
:1005B4000000000000000000000000000000000037
:1005C400000000FC0404FC20200000FF000000FFE9
:1005D4000200000000000000000000000000000015
:1005E4000000000000000000000000000000000007
:1005F40000000000000000000000000000000000F7
:1006040000000000000000000000000000000000E6
:1006140000000000404040FF0000FF04040000FF11
:10062400000000FF81010000000000000000000045
:1006340000000000000000000000000000000000B6
:1006440000000000000000000000000000000000A6
:100654000000000000000000000000000000000096
:100664000000000000000000101092FF0000FF00D6
:100674000000007F4040407F101000000000000098
:100684000000000000000000000000000000000066
:100694000000000000000000000000000000000056
:1006A4000000000000000000000000000000000046
:1006B400000000000000000000000000040424FF0B
:1006C4000000FF00000080FFF9F9F9FF90223C00D0
:1006D4000000000000000000000000000000000016
:1006E4000000000000000000000000000000000006
:1006F40000000000000000000000000000000000F6
:1007040000000000000000000000000000000000E5
:100714001C3E7FF781B7FD7F3E1CFFFFFFFFFFFFFD
:10072400FFFFFFFFFFFFFFFFFFFFFFFFFF81FD91C3
:10073400FD81B9C5C5B98185FD8581DD81FF00FED7
:10074400829393928282828292BB9382FE00000003
:1007540000FF81DD81FF00492A1C7F1C2A4900001B
:100764000000000000000000000000000000000085
:10077400000000006400C80090012003F8FFFCFFA3
:10078400FEFFFFFF1027E80364000A0001000010C9
:1007940000011000010000000100020003030250E8
:1007A4002533750025750025336902000100020018
:1007B4009A07010071039C07010072039E0704005D
:1007C4000400A0070000F894EE27ECBBF1E0FBBFA7
:1007D400EBBFE5BFF8E1F1BDE1BD8DE0A2E0BB27D1
:1007E400ED938A95E9F780E094E0A0E6ED93019714
:1007F400E9F7E0EBF7E085919591009761F0A59119
:10080400B59105901590BF01F00105900D920197E7
:10081400E1F7FB01F0CFEFE5EDBFE4E0EEBFC0E6AA
:10082400D1E09FC3AA93C198E881E03011F0C29A45
:1008340001C0C298E981EFB9EEB1E078E038E1F7A0
:10084400C19A32C3FED509D634F40BD6EC910ED638
:10085400E9DF0FD6F8CF96C2C6D900E010E0FDD587
:100864002CF4FFD5E0E0EC9304D6F9CFEBDF8AC299
:10087400C09ABD9ABB9AB99ABA9AB89AFDD516D7B6
:10088400E0E5EDB9C098AAE0FAD510D7C09AC19AAC
:10089400F8D5E52DEC5FF9D5E42DE05FF6D5E72D2D
:1008A400E058F3D5A0E020FCA1E0EA2FEE0FEE0F14
:1008B400EE0FE0620E2EA0E021FCA1E0EA2FEE0F85
:1008C400EE0FE029E2D5E62DEE0FE629E570E860AB
:1008D400DCD5C2DF0895AA93A881A03830F4D1D51D
:1008E400E881E068D2D5E0E2D0D521960895D0D54C
:1008F400A8D5B3D558F4F801CED50F01F801CED55B
:10090400D0D5E491D001EC93B4D5F3CF73D96AC2B6
:10091400AA9367D9AE81A53550F5AD81A13338F5D9
:10092400C3D5A4E5B0E0D2D8DF01EE81C3D5B9D5F3
:100934008F01BAD5EE0FEE0FEE0FAD81AE1B3A2F3D
:1009440090D52C91EC81E03021F4B6D5E0952E239E
:100954000BC0AC81A13019F4AFD52E2B05C0AC81EE
:10096400A23011F4A9D52E27F80195D5208340D9BA
:1009740027960895AA932497E0E0E883E983EA831D
:10098400EB832DD900E010E020E030E040E050E0BF
:1009940097D5A535E0E0BE0764F495D5A535E0E02C
:1009A400BE073CF493D5D19724F4AB85BC85D1978D
:1009B4000CF059C08BD58DD58FD58F0181D5ED85A0
:1009C400FE858AD59F01112332F4F80134D88F01B2
:1009D400EFEFFFEF02C0E1E0F0E0E887F9873323AF
:1009E40032F4F90128D89F014FEF5FEF02C041E0D4
:1009F40050E0000F111F220F331F71D50217130788
:100A0400D4F4F901F595E795DF01F80165D56DD5C5
:100A1400ED85FE8555D5EA17FB0761F0AF81AA2362
:100A24002AF066D56CD5E21BF30B5FD56BD5F801C4
:100A34006FD5EECF18C0F801F595E795DF01F90100
:100A44004BD553D546D542D5EA17FB0761F0AF81A4
:100A5400AA232AF057D553D5E01BF10B46D548D528
:100A6400F90156D5EFCFC2D863960895AA93B9D8A1
:100A7400AC81A53690F50C801124A985BA85ED8149
:100A8400FE812AD5D00122D8DF01E4E6F0E03BD88C
:100A94001E2F30E0311760F440D5AF81B88542D5C0
:100AA4003CD5AB85BC853ED5A1E064DF3F5FF2CF8A
:100AB400A985ED81EA1B0E2F302F131770F409D589
:100AC40034D5AF81B88534D504D52FD5AB85BC8555
:100AD4002FD5A0E04FDF3150F0CF8AD82D9608955E
:100AE400AA93A981AF3018F4A881A73008F010C0E8
:100AF400E881E0D43197A4E5B0E0E8D7BF01E9810B
:100B0400D9D43197A6E0B0E0E1D7E60FF71F4F0143
:100B1400CBC11A9310E01E3028F40ED50FD511D591
:100B24001F5FF9CF19910895B3D41A9310E0EF81A0
:100B3400F8850AD580F40DD5BF01EB81FC8130978F
:100B440021F00CD512D5E09502C008D50ED5DB01F5
:100B5400EC931F5FECCFE981FA81309711F0F9D45F
:100B6400F0D418812B96089506D5DFD4E5E0F0E0A3
:100B7400DCD4E6E2F0E003D57FD4D6DF95C1AA93B6
:100B84001A93AA81AF3018F0A981A73008F401C0E4
:100B94009BC2F9D4EA818ED4AFE0B0E019D89CD4DA
:100BA400D3D464F4C9D4CAD4E081E03029F0C4D4E5
:100BB400C5D4A08164D4D8DF1F5FECCFAADF84C280
:100BC40067D40FD800E030E020E010E0153088F55D
:100BD400EC81FD81A5E0B0E079D7DF01ADD461D42B
:100BE400EA5DFF4F2491D5D4302DD8D43E2BDCD4EC
:100BF4003E2BE0D43E2B22952F70CBD4002DCED4A7
:100C04000E2BD2D40E2BD6D40E2BF40144D4308325
:100C1400F401E858FE4F3083F401E553FE4F00839E
:100C2400F401E453FE4F0083F40132964F011F5F39
:100C3400CDCF8FD486D48DD484D40EC2AA931A93E4
:100C4400AA81AE3018F0A981A63008F401C03CC2D4
:100C54009AD4EA812FD4AEE0B0E0BAD73DD474D4AC
:100C640064F46AD46BD4E081E03029F065D466D4AE
:100C7400A08105D4A5DF1F5FECCF4BDF25C208D4CC
:100C840028979ED4A739E0E0BE0724F0E6E9F0E017
:100C9400E887F987A985AA231AF4E0E0E887E987B9
:100CA40092D4E4EAF7E041D4EC85FD858FD4ECE0FE
:100CB400DDD365DF88D4E8EAF7E037D4EE85FF8535
:100CC4006627772780D784E07CD32896E1E0CED3CB
:100CD40056DF76D4C9D680D4E6E9F0E060E070E06F
:100CE4003CD729D6EC83FD836E837F83EEE4F0E06A
:100CF4007BD4EFE4F0E019D4E7E2F0E016D4EC851D
:100D0400FD856E857F85DED5AE2FB0DEAA85BB85D9
:100D14008827992761D4E7E3F0E060E070E01DD70D
:100D24000AD64CD7E2E0F0E05FD462D4E5E2F0E02A
:100D3400FCD3E885F9856A857B85C4D5AE2F96DE1C
:100D44002C96089550D7E0EFEA93A5E7B3E008D5D1
:100D5400E093740300E010E0E0917403D801AAD397
:100D6400AE17BF0778F4A9E0A09FF001A19FF00D92
:100D740042D4DBD3E2EEEA93EDE7EA93A0E0A7D115
:100D840078D3EACF3AD70895F6D3E330A0E0FA0750
:100D940029F4E091720332D46F0104C0E230A0E080
:100DA400FA0729F4E091710329D45F0104C0E1300A
:100DB400A0E0FA0769F4E0917303A9E0EA9FF00167
:100DC4001AD4DF014CD1AFE6B3E07ED5ED93FC93AA
:100DD4006BC05ED3EA81FB81A8D318D4A6D38FD38A
:100DE4001BD4A2DE24960895E3E040D379DE00D438
:100DF4000DD4C5D314D40AD4C2D311D407D4BFD3C9
:100E0400A0E03DD391DE089543D3A881B981A436EF
:100E1400E0E0BE0724F0E3E6F0E0E883F983A8818C
:100E2400B981AE3CEFEFBE0724F4EEECFFEFE883AC
:100E3400F983E881F98138C02BD3D3D6EC81FD81C5
:100E4400309741F5D601E0DF8F01D501DDDF9F0149
:100E5400E3E0EA93A2E044DEA3E011D3B1DEE3E0F1
:100E6400EA93A4E03DDEA4E00AD3AADEACD3EBEA25
:100E7400F7E05BD3F901AAD3E5E0EA93A2E0DEDE72
:100E8400A2D3EBEAF7E051D3F801A0D3E5E0EA936B
:100E9400A4E0D4DEE1C06FD3E093BD03F093BE03BE
:100EA400DBDCA6E2B5E023DD229608959DDFBBD30B
:100EB400A436E0E0BE073CF0E3E0D8D211DEE1E086
:100EC400F0E0AAD386DFE3E0F0E0EA15FB053CF0AE
:100ED400E9E0CCD205DEE3E0F0E09ED37ADF0895CA
:100EE400EBE2F0E022D39FD3CADEA091BD03B09120
:100EF400BE03A2DFDBDFA6DC0895089518951895DC
:100F040018950A921A92FA926A937A938A939A9308
:100F1400AA93BA93EA93FA93EFB7EA9389D3E0DFFB
:100F2400AFEBB3E089D3A091BF03B091C0031A978C
:100F340048F0E0E0E093BF03E093C003A0917403A2
:100F4400BB2722DFE991EFBFF991E991B991A9910A
:100F54009991899179916991F990199009901895CD
:100F64001895E0E0E8BBE7BBE5BBE4BBE2BBE1BB53
:100F7400E5E0E3BFE0E0E2BFEFBDE5E0EEBD58D35E
:100F8400E0E0E7BDE6BDEFE0EBBDE2E4EABDE0E0B2
:100F9400E9BDE8BDE2BDE7E0E5BDE0E0E4BDE3BDF9
:100FA400EBB7E06CEBBFEEE0E5BFE0ECEABFE1E5F8
:100FB400E9BFE0E0EAB9E0E8E8B9E0E0E0BFE0EC8E
:100FC400E7B9E3E8E6B9E0E0EDB9E6BF79D350DC90
:100FD400A3E281DCB7DEA0E052D25DDF78948DDF3E
:100FE400FECFFFCF55D21A936BD3E03011F4E0E07B
:100FF4006BC0E981FA81309769F0A5E5A7D310E0C9
:1010040021D3ED91A983BA83AE2FA0D31F5F1830EB
:10101400B8F302C0ACEC9AD3E1E056C039D2E1D5C2
:10102400AC81BD8112D311F4E0E016C0AEEB8ED3D7
:1010340010E020E631E03F932F932F5F3F4F81D3A1
:10104400AF91BF91EC931F5F1930A8F3E0E6F1E094
:101054006CD2A9E0F4D30DD5CBD52696089518D239
:101064001A93F0D2DBDFE03011F4F2D22DC0E0911C
:101074006401E295EF70E695E3701E2FE3D2E5D2AA
:1010840011F4E6D221C0A4E461D3E12FA8E7B7E0CC
:10109400E4D291D50BD3D6D2C1DFE03011F4D8D24B
:1010A40013C00ED3E12FA0E8B7E0D7D280D5A0912A
:1010B4006001B0916101EA23FB23D1D43CD4A0E0C8
:1010C400B0E080E89DE365D4188123960895AA933F
:1010D400AB81BC81BAD211F4E0E05EC0E881E29554
:1010E400E07FEE0FEF61E883AEE430D3A9812ED325
:1010F400AA812CD3A8812AD3AB81BC818FDFE030B5
:1011040011F4E0E049C0A0916301EA81EA1751F4C7
:10111400A0916201E981EA1729F4A0916401E881B0
:10112400EA1711F0E0E038C0AB81BC818ED211F433
:10113400E0E032C0A8E40AD3AFE0A1D1B7D2C0D274
:101144002BC0A6D150D5AAD112962DD53097F1F047
:10115400A5D187D28F01309761F00230E0E01E07FD
:10116400A0F0F80131978F01AA81BB811496ED9309
:10117400FC9394D1129660D23197AC81A0838ED126
:1011840012D5FF2312F08AD157D205C087D1EFEFD1
:10119400FFEFED93FC932ED52596089579D12697EC
:1011A4001ED510E0AC85BD85E0E0F0E0ED93FC9346
:1011B400EA89FB893196EA8BFB8B3197E4912E2FD8
:1011C400E03009F4F8C0E12FE03031F4253211F4B5
:1011D40011E001C049D2EEC0E130A1F4253211F48E
:1011E40043D2E7C012E040E000E02D3211F401E008
:1011F400E1C02B3211F44BE2DDC0203211F440E2A5
:10120400D9C002C0E23039F450E013E0203311F4C5
:101214000068D0C003C0E33009F0CCC0203310F024
:101224002A3308F007C0AAE05A9F502DE22FE0535A
:101234005E0FC0C0E22FE33639F41CD21ED21AD29C
:10124400A481AA931ED2B5C0E33739F41FD220D2A9
:101254004CD121D2DFD01E2F09C0E03759F416D269
:1012640017D243D118D2E1D01E2F086002600F7745
:1012740030E02EC0E43611F0E93611F4046002C007
:10128400E53729F4E8E8F7E030D115E00BC0E8359C
:1012940011F4086003C0E83709F08BC0E2E9F7E015
:1012A40024D114E002FF11C0F1D1F2D1F7D1AB8502
:1012B400AA232AF4EA85FB85BED3F0D14DE240305F
:1012C40011F01F5F01C00B7F03C0E0D1E1D1E6D173
:1012D40000FD10C0151770F407FF08C002FF04C01A
:1012E4000B7F242F115001C020E301C020E2BCD1A8
:1012F4005150F0CF312F01FF13C0303081F003FF84
:1013040004C0FDD02591F1D004C0C5D12D91AE8388
:10131400BF83AAD1503009F051503150EECF40C0B4
:1013240020E3EDD044D4E887F987E9D03296DDD0C4
:10133400E885F985AA85BB85AE17BF0738F02F5F0E
:101344003FD1EA85FB85C8D0A9D1F2CF2A3328F052
:1013540003FF02C0295F01C0295D04FD18C02133C9
:1013640018F42ED1119709F409C0531710F000FF97
:1013740001C011C020E207FF0AC020E3006102FFA0
:1013840006C00B7F4A937DD1503009F051506CD187
:10139400503009F05150315013D1129708F0C0CF9A
:1013A40000FF07C0503029F05150E0E2EA9369D1C0
:1013B400F9CF10E0FDCEAC85BD85F5D317D4649686
:1013C4000895FF92F82E26970CD46BD1309719F418
:1013D400EFEFFFEF1BC0DE01169629D38D0161D11B
:1013E40084D0E0E0E887E987DE011A9620D3DBD3D6
:1013F4009CD01A930A93E3EAF8E097D0DE011A9698
:10140400CDDE9F0148D1E0E0EC93F901F1D32A96B7
:10141400FF9008953DD0A991B991EE27FF276D91D2
:10142400662311F03196FBCF089532D0AA27BB274B
:10143400E991F9910590002011F01196FBCFFD017F
:101444000895D1D3E0E8EA93A0E0ECD9E0E4EA938C
:10145400A0E0E8D900E010E00895083FE1E01E07AD
:101464000895A7E7B1E0A00FB11F0895EA93A1E0A2
:1014740008950F5F1F4F0895A1E0B0E00895B0E014
:101484000895E1E2EA93A0E0CDC9EA93A0E0CAC9D5
:10149400BA93AA930895E958FE4F0895AA81BB818F
:1014A4000895EA0FFB1F0895AD81E9DFE8E0F0E05D
:1014B4002AD30895F0E00895E32FA1E0C8D2089557
:1014C400A989BA890895AD85BE850895AF85B8897F
:1014D4000895EB85FC850895EA1BFB0B0895E989C3
:1014E400EA93E889EA93AC8513CAEE83FF830895EF
:1014F400E885F985EBDFD5DFEF87F88B0895EE817A
:10150400FF810895FA01DCDFCCDFE98BFA8B0895C3
:10151400AE81BF81C6DFE9DFE2CFDBDFFA93EA9376
:10152400E32FC8CFAE1BBF0BB3CFFA93EA93089552
:101534001196E32FBFDFF6CFE12FBCCFE759FE4F63
:101544000895A0E0A0830895A12F99DFAE17BF07E7
:101554000895F40131964F0131979DCFEF81F885BD
:10156400A985BA858BD2DF01E7CF9BDFAD81BE8130
:1015740098DFE49108958CDFE881F9810895D5DF3F
:10158400E0E0F0E0D2CFEA81EA93AA81A9DA10E0A0
:101594000895E22FE170A3E0EA020895E22FE270D9
:1015A400A6E0EA02F0010895E22FE470ACE0EA025A
:1015B400F0010895E22FE870A8E1EA02F00108952D
:1015C400A885B9850895E9E6F1E0AFCF48D2FBD20A
:1015D40084E0F7DE28960895E4E6F0E060E070E049
:1015E4007AD2DF01CB010895A0DFEAE0F0E09DCFDD
:1015F400E4E0F0E09ACFEB58FC4F0895A9E0EA9FAD
:10160400F001F9DFDF012BDD5FD10895E2E1F0E0C5
:101614008CDFEEE1F7E0089588DFA0E030CFA0E0B2
:101624002EDF82DAE5CFA0916F03B09170030895A5
:10163400E0E0EDBDECBD0895ED91FD913196FE9392
:10164400EE930895A981BA810895CCDCE030089521
:10165400E0E0FCE36CE176EC08952CDFEE0FFF1F75
:1016640020CF1496A0D208952A932DDFEF85F88910
:1016740009950895E889F98908953497E88BF98BD9
:10168400089521DFEF85F88909950895F3DFF5CFF3
:10169400A889B989E6CFAE81BF810895EA87FB871F
:1016A4000895DE011C96C3D17ED20895109639F0B8
:1016B40080ED97E00197F1F7A8951197C9F7089580
:1016C400EE27A898A09A80EC93E00197F1F7A098F0
:1016D40085E28A95F1F7989B08958BEC8A95F1F74A
:1016E400989BE1E08CE093E00197F1F70895A09ACC
:1016F40085E08A95F1F7A0988DE18A95F1F78894B1
:1017040098990894E79585ED8A95F1F70895E894FA
:10171400A09A85E08A95F1F770FDA09883E28A95F6
:10172400F1F7989903C070FF03C0089570FF0895FE
:1017340088EC8A95F1F7A0988DE08A95F1F7689482
:10174400089568E0D4DF6A95E9F708957A2F68E090
:10175400EE27DDDF26F477956A95D9F7E3950895AA
:101764004F935F9311244427012C1124A9DFEE2306
:1017740001F1AF93A881EADFAF9151E0501598F4DD
:10178400B6DFE7FD08C0B3DFE7FD06C03FD089231D
:1017940019F4152E01C0ABDF39D0892370E009F0AC
:1017A40071E0B5DF1EC0A3DFE7FF0BC0A0DFE7FFDA
:1017B40005C0E42F5F914F9121960895689437D026
:1017C400EFCF95DFE7FF01C003C0501531F0152EB0
:1017D400E8942DD077279BDF04C0689428D071E06B
:1017E40096DF5395513454F282DFEE1FEE1FE17001
:1017F4001896EC93189743951120D9F259E0EC917F
:101804001996EC9318975A95D1F7AECFE52FEA9530
:101814006E2FE695E695E695FF27EA0FFB1F80817C
:1018240091E0677019F0990F6A95FCCF0895EEDF87
:101834001EF09095892301C0892B80830895EE279B
:10184400AA2389F08A2F68E1A881B98198E0FD91E3
:101854007F2F7E27779508F4E627E795F6959A95E6
:10186400B9F78A9599F722960895552342F450388A
:1018740011F4E0FF04C03196691F791F6BF050E842
:10188400572711F45F9373C05F3F31F0660F000C6C
:1018940057956795752F08955F9300200AF073C0DC
:1018A4006CC050E8192E1522880F991F9527550FE3
:1018B400879550E8072E0522660F771F7527550F69
:1018C40067950895689401C0E8945F93F2DF7038D7
:1018D40018F07F3F08F44BC056E1571BAAF451950A
:1018E40058300EF4593030F0EFEFFFEF6FEF7FE731
:1018F40077F91AC077275523B9F0EE0FFF1F661F3B
:10190400771F5A95D1F710C07727583028F0EF2F5A
:10191400F62F672F5850F9CF552331F076956795F8
:10192400F795E7955A95D1F700200AF488D05F918E
:101934000895689401C0E894309760407040B1F015
:10194400002426F0772312F4009479D0172E7EE138
:10195400112032F07A95EE0FFF1F661F111CF9CF8C
:10196400EF2FF62F612D5F938ADF5F910895EE27A5
:10197400FF27662777275F910895EFEFFFEF6FE763
:101984007FEF5F910895EFEFFFEF6FE77FE75F91E0
:1019940008955F9386DF703851F3903841F3012442
:1019A4000894791F23F41CF300203AF3ECCF0F9230
:1019B4001F932F933F934F93112722279927689FB3
:1019C400A0018F9F302D410D591F6B9F300D411D7C
:1019D400591F8E9F27D0BF9F25D06A9F23D0BE9FBB
:1019E4001DD0AF9F1BD0AE9F110D291F391F491F5A
:1019F400591FE32FF42F652F522F4F913F912F91B1
:101A04001F910F9066232AF0550FEE1FFF1F661FCC
:101A140002C073954BF229DF5F910895100D211DCB
:101A2400391F02C0200D311D491F591F089500247C
:101A3400AF0DB01D0895F195E195F0400895F0952E
:101A440060957095E195FF4F6F4F7F4F0895EE239A
:101A54000E2EEA2F19F0EE0F0A94E9F708956F2F6E
:101A6400660F660B762F08958B2F880F880B982F9F
:101A74000895EE23E1E009F0EE270895FA9FF02D92
:101A8400EB9FF00DEA9FE02DF10D08957A9F702DE4
:101A94006B9F700DF89F700DE99F700D6A9F602D0C
:101AA400710DFB9F600D711DE89F600D711D8827EE
:101AB400FA9FF02D610D781FEB9FF00D611D781FCB
:101AC400EA9FE02DF10D681F781F08954BD0D6DFF3
:101AD4000EF4B1DF089554D0D9DF0EF4B0DF0895C9
:101AE4000024112490E1AA0FBB1F001C111C0E1A24
:101AF4001F0A18F40E0E1F1E01C0A1609A9599F7D3
:101B0400FD01D00108952ED0EBDF0EF494DF08958B
:101B14003F934F935F93002411244427552730E2C9
:101B2400AA0FBB1F881F991F001C111C441F551F9F
:101B34000E1A1F0A460B570B28F40E0E1F1E461FC3
:101B4400571F01C0A1603A9559F7FD01BC01D001AE
:101B5400CA015F914F913F91089512D0D9DF0EF4DD
:101B64006EDF0895E894F7FF02C065DF6894B7FF5D
:101B740006C0A095B095119600F8039400FA089554
:101B8400E89477FF02C05BDF689497FF0BC00024E2
:101B9400A095B095809590951196801D901D00F8A4
:101BA400039400FA0895ED91FC911197089505901E
:101BB400F491E02D0895A591B4910895E883F983F3
:101BC4006A837B8308957A936A93FA93EA930895D8
:101BD4001B2EBF2FF12D1A2EAE2FE12D08955A93EF
:101BE4004A933A932A931A930A9308955D814C81F8
:101BF4003B812A81198108810895099119910895D9
:00000001FF
